{
  "contractName": "SortingContract",
  "abi": [
    {
      "inputs": [
        {
          "internalType": "uint256[]",
          "name": "arr",
          "type": "uint256[]"
        }
      ],
      "name": "sortArray",
      "outputs": [
        {
          "internalType": "uint256[]",
          "name": "",
          "type": "uint256[]"
        }
      ],
      "stateMutability": "view",
      "type": "function"
    }
  ],
  "bytecode": "0x608060405234801561001057600080fd5b506105c3806100206000396000f3fe608060405234801561001057600080fd5b506004361061002b5760003560e01c8063e379976e14610030575b600080fd5b61004a60048036038101906100459190610356565b610060565b604051610057919061045d565b60405180910390f35b6060600082905060008151905060005b60018261007d91906104ae565b8110156101a85760005b6001828461009591906104ae565b61009f91906104ae565b81101561019457836001826100b491906104e2565b815181106100c5576100c4610516565b5b60200260200101518482815181106100e0576100df610516565b5b6020026020010151111561018157600084828151811061010357610102610516565b5b602002602001015190508460018361011b91906104e2565b8151811061012c5761012b610516565b5b602002602001015185838151811061014757610146610516565b5b602002602001018181525050808560018461016291906104e2565b8151811061017357610172610516565b5b602002602001018181525050505b808061018c90610545565b915050610087565b5080806101a090610545565b915050610070565b508192505050919050565b6000604051905090565b600080fd5b600080fd5b600080fd5b6000601f19601f8301169050919050565b7f4e487b7100000000000000000000000000000000000000000000000000000000600052604160045260246000fd5b610215826101cc565b810181811067ffffffffffffffff82111715610234576102336101dd565b5b80604052505050565b60006102476101b3565b9050610253828261020c565b919050565b600067ffffffffffffffff821115610273576102726101dd565b5b602082029050602081019050919050565b600080fd5b6000819050919050565b61029c81610289565b81146102a757600080fd5b50565b6000813590506102b981610293565b92915050565b60006102d26102cd84610258565b61023d565b905080838252602082019050602084028301858111156102f5576102f4610284565b5b835b8181101561031e578061030a88826102aa565b8452602084019350506020810190506102f7565b5050509392505050565b600082601f83011261033d5761033c6101c7565b5b813561034d8482602086016102bf565b91505092915050565b60006020828403121561036c5761036b6101bd565b5b600082013567ffffffffffffffff81111561038a576103896101c2565b5b61039684828501610328565b91505092915050565b600081519050919050565b600082825260208201905092915050565b6000819050602082019050919050565b6103d481610289565b82525050565b60006103e683836103cb565b60208301905092915050565b6000602082019050919050565b600061040a8261039f565b61041481856103aa565b935061041f836103bb565b8060005b8381101561045057815161043788826103da565b9750610442836103f2565b925050600181019050610423565b5085935050505092915050565b6000602082019050818103600083015261047781846103ff565b905092915050565b7f4e487b7100000000000000000000000000000000000000000000000000000000600052601160045260246000fd5b60006104b982610289565b91506104c483610289565b92508282039050818111156104dc576104db61047f565b5b92915050565b60006104ed82610289565b91506104f883610289565b92508282019050808211156105105761050f61047f565b5b92915050565b7f4e487b7100000000000000000000000000000000000000000000000000000000600052603260045260246000fd5b600061055082610289565b91507fffffffffffffffffffffffffffffffffffffffffffffffffffffffffffffffff82036105825761058161047f565b5b60018201905091905056fea2646970667358221220634558f97b8a5bd94fbcc3912b3a556425f39814080786d1dbc8873b169f797064736f6c63430008120033",
  "immutableReferences": {},
  "source": "// SPDX-License-Identifier: MIT\r\npragma solidity >=0.8 <0.9.0;\r\n\r\nimport \"./SafeMath.sol\";\r\n\r\ncontract SortingContract {\r\n  using SafeMath for uint256;\r\n\r\n  function sortArray(uint256[] memory arr) public view returns (uint256[] memory) {\r\n    uint256[] memory sortedArr = arr;\r\n    uint n = sortedArr.length;\r\n    for (uint i = 0; i < n-1; i++) {\r\n      for (uint j = 0; j < n-i-1; j++) {\r\n        if (sortedArr[j] > sortedArr[j+1]) {\r\n          uint256 temp = sortedArr[j];\r\n          sortedArr[j] = sortedArr[j+1];\r\n          sortedArr[j+1] = temp;\r\n        }\r\n      }\r\n    }\r\n    return sortedArr;\r\n  }\r\n}",
  "sourcePath": "C:\\Users\\Sina\\Desktop\\Solidity_p\\Truffle\\07-Vote\\contracts\\SortArray.sol",
  "compiler": {
    "name": "solc",
    "version": "0.8.18+commit.87f61d96.Emscripten.clang"
  },
  "schemaVersion": "3.4.11",
  "updatedAt": "2023-04-24T14:06:46.513Z",
  "devdoc": {
    "kind": "dev",
    "methods": {},
    "version": 1
  },
  "userdoc": {
    "kind": "user",
    "methods": {},
    "version": 1
  }
}