{
  "contractName": "Vote",
  "abi": [
    {
      "inputs": [],
      "stateMutability": "nonpayable",
      "type": "constructor"
    },
    {
      "anonymous": false,
      "inputs": [
        {
          "indexed": false,
          "internalType": "uint256",
          "name": "_candidateId",
          "type": "uint256"
        },
        {
          "indexed": false,
          "internalType": "string",
          "name": "name",
          "type": "string"
        },
        {
          "indexed": false,
          "internalType": "uint256",
          "name": "age",
          "type": "uint256"
        },
        {
          "indexed": false,
          "internalType": "string",
          "name": "image",
          "type": "string"
        },
        {
          "indexed": false,
          "internalType": "address",
          "name": "_address",
          "type": "address"
        },
        {
          "indexed": false,
          "internalType": "uint256",
          "name": "voteCount",
          "type": "uint256"
        }
      ],
      "name": "CandidateCreated",
      "type": "event"
    },
    {
      "anonymous": false,
      "inputs": [
        {
          "indexed": false,
          "internalType": "uint256",
          "name": "voterId",
          "type": "uint256"
        },
        {
          "indexed": false,
          "internalType": "string",
          "name": "name",
          "type": "string"
        },
        {
          "indexed": false,
          "internalType": "string",
          "name": "image",
          "type": "string"
        },
        {
          "indexed": false,
          "internalType": "address",
          "name": "_address",
          "type": "address"
        },
        {
          "indexed": false,
          "internalType": "bool",
          "name": "allowed",
          "type": "bool"
        },
        {
          "indexed": false,
          "internalType": "uint256",
          "name": "numVote",
          "type": "uint256"
        }
      ],
      "name": "VoterCreated",
      "type": "event"
    },
    {
      "inputs": [],
      "name": "_candidateId",
      "outputs": [
        {
          "internalType": "uint256",
          "name": "_value",
          "type": "uint256"
        }
      ],
      "stateMutability": "view",
      "type": "function",
      "constant": true
    },
    {
      "inputs": [],
      "name": "_voterId",
      "outputs": [
        {
          "internalType": "uint256",
          "name": "_value",
          "type": "uint256"
        }
      ],
      "stateMutability": "view",
      "type": "function",
      "constant": true
    },
    {
      "inputs": [
        {
          "internalType": "address",
          "name": "",
          "type": "address"
        }
      ],
      "name": "candidates",
      "outputs": [
        {
          "internalType": "uint256",
          "name": "candidateId",
          "type": "uint256"
        },
        {
          "internalType": "string",
          "name": "name",
          "type": "string"
        },
        {
          "internalType": "uint256",
          "name": "age",
          "type": "uint256"
        },
        {
          "internalType": "string",
          "name": "image",
          "type": "string"
        },
        {
          "internalType": "address",
          "name": "_address",
          "type": "address"
        },
        {
          "internalType": "uint256",
          "name": "voteCount",
          "type": "uint256"
        }
      ],
      "stateMutability": "view",
      "type": "function",
      "constant": true
    },
    {
      "inputs": [
        {
          "internalType": "uint256",
          "name": "",
          "type": "uint256"
        }
      ],
      "name": "candidatesAddress",
      "outputs": [
        {
          "internalType": "address",
          "name": "",
          "type": "address"
        }
      ],
      "stateMutability": "view",
      "type": "function",
      "constant": true
    },
    {
      "inputs": [],
      "name": "owner",
      "outputs": [
        {
          "internalType": "address",
          "name": "",
          "type": "address"
        }
      ],
      "stateMutability": "view",
      "type": "function",
      "constant": true
    },
    {
      "inputs": [
        {
          "internalType": "address",
          "name": "",
          "type": "address"
        }
      ],
      "name": "voters",
      "outputs": [
        {
          "internalType": "uint256",
          "name": "voterId",
          "type": "uint256"
        },
        {
          "internalType": "string",
          "name": "name",
          "type": "string"
        },
        {
          "internalType": "string",
          "name": "image",
          "type": "string"
        },
        {
          "internalType": "address",
          "name": "_address",
          "type": "address"
        },
        {
          "internalType": "bool",
          "name": "allowed",
          "type": "bool"
        },
        {
          "internalType": "uint256",
          "name": "numVote",
          "type": "uint256"
        }
      ],
      "stateMutability": "view",
      "type": "function",
      "constant": true
    },
    {
      "inputs": [
        {
          "internalType": "uint256",
          "name": "",
          "type": "uint256"
        }
      ],
      "name": "votersAddress",
      "outputs": [
        {
          "internalType": "address",
          "name": "",
          "type": "address"
        }
      ],
      "stateMutability": "view",
      "type": "function",
      "constant": true
    },
    {
      "inputs": [
        {
          "internalType": "uint256",
          "name": "_index",
          "type": "uint256"
        }
      ],
      "name": "votingMode",
      "outputs": [],
      "stateMutability": "nonpayable",
      "type": "function"
    },
    {
      "inputs": [
        {
          "internalType": "string",
          "name": "_name",
          "type": "string"
        },
        {
          "internalType": "string",
          "name": "_image",
          "type": "string"
        },
        {
          "internalType": "address",
          "name": "_add",
          "type": "address"
        }
      ],
      "name": "setVoter",
      "outputs": [],
      "stateMutability": "nonpayable",
      "type": "function"
    },
    {
      "inputs": [],
      "name": "getAllAddressOfVoters",
      "outputs": [
        {
          "internalType": "address[]",
          "name": "",
          "type": "address[]"
        }
      ],
      "stateMutability": "view",
      "type": "function",
      "constant": true
    },
    {
      "inputs": [
        {
          "internalType": "address",
          "name": "_address",
          "type": "address"
        }
      ],
      "name": "getVoter",
      "outputs": [
        {
          "components": [
            {
              "internalType": "uint256",
              "name": "voterId",
              "type": "uint256"
            },
            {
              "internalType": "string",
              "name": "name",
              "type": "string"
            },
            {
              "internalType": "string",
              "name": "image",
              "type": "string"
            },
            {
              "internalType": "address",
              "name": "_address",
              "type": "address"
            },
            {
              "internalType": "bool",
              "name": "allowed",
              "type": "bool"
            },
            {
              "internalType": "uint256",
              "name": "numVote",
              "type": "uint256"
            }
          ],
          "internalType": "struct Vote.Voter",
          "name": "",
          "type": "tuple"
        }
      ],
      "stateMutability": "view",
      "type": "function",
      "constant": true
    },
    {
      "inputs": [
        {
          "internalType": "address",
          "name": "_address",
          "type": "address"
        }
      ],
      "name": "getVoterByAllElement",
      "outputs": [
        {
          "internalType": "uint256",
          "name": "",
          "type": "uint256"
        },
        {
          "internalType": "string",
          "name": "",
          "type": "string"
        },
        {
          "internalType": "string",
          "name": "",
          "type": "string"
        },
        {
          "internalType": "address",
          "name": "",
          "type": "address"
        },
        {
          "internalType": "bool",
          "name": "",
          "type": "bool"
        },
        {
          "internalType": "uint256",
          "name": "",
          "type": "uint256"
        }
      ],
      "stateMutability": "view",
      "type": "function",
      "constant": true
    },
    {
      "inputs": [],
      "name": "getVoterLength",
      "outputs": [
        {
          "internalType": "uint256",
          "name": "",
          "type": "uint256"
        }
      ],
      "stateMutability": "view",
      "type": "function",
      "constant": true
    },
    {
      "inputs": [
        {
          "internalType": "string",
          "name": "_name",
          "type": "string"
        },
        {
          "internalType": "uint256",
          "name": "_age",
          "type": "uint256"
        },
        {
          "internalType": "string",
          "name": "_image",
          "type": "string"
        },
        {
          "internalType": "address",
          "name": "_add",
          "type": "address"
        }
      ],
      "name": "setCandidate",
      "outputs": [],
      "stateMutability": "nonpayable",
      "type": "function"
    },
    {
      "inputs": [],
      "name": "getCandidateLength",
      "outputs": [
        {
          "internalType": "uint256",
          "name": "",
          "type": "uint256"
        }
      ],
      "stateMutability": "view",
      "type": "function",
      "constant": true
    },
    {
      "inputs": [],
      "name": "getAllCandidateAddress",
      "outputs": [
        {
          "internalType": "address[]",
          "name": "",
          "type": "address[]"
        }
      ],
      "stateMutability": "view",
      "type": "function",
      "constant": true
    },
    {
      "inputs": [
        {
          "internalType": "address",
          "name": "_address",
          "type": "address"
        }
      ],
      "name": "getCandidateByAllElement",
      "outputs": [
        {
          "internalType": "uint256",
          "name": "",
          "type": "uint256"
        },
        {
          "internalType": "string",
          "name": "",
          "type": "string"
        },
        {
          "internalType": "uint256",
          "name": "",
          "type": "uint256"
        },
        {
          "internalType": "string",
          "name": "",
          "type": "string"
        },
        {
          "internalType": "address",
          "name": "",
          "type": "address"
        },
        {
          "internalType": "uint256",
          "name": "",
          "type": "uint256"
        }
      ],
      "stateMutability": "view",
      "type": "function",
      "constant": true
    },
    {
      "inputs": [
        {
          "internalType": "address",
          "name": "_address",
          "type": "address"
        }
      ],
      "name": "voting",
      "outputs": [],
      "stateMutability": "nonpayable",
      "type": "function"
    }
  ],
  "bytecode": "0x608060405234801561001057600080fd5b5033600260006101000a81548173ffffffffffffffffffffffffffffffffffffffff021916908373ffffffffffffffffffffffffffffffffffffffff160217905550612993806100616000396000f3fe608060405234801561001057600080fd5b50600436106101165760003560e01c80638da5cb5b116100a2578063c30d7eaa11610071578063c30d7eaa1461031d578063d4f50f9814610339578063e3249c7e14610369578063f7522a8314610385578063f7ff4079146103a357610116565b80638da5cb5b1461028e578063a3ec138d146102ac578063a7388967146102e1578063b9be3152146102ff57610116565b80634ccbd40e116100e95780634ccbd40e146101bc5780635f1125ed146101d85780637e329621146102085780638ab66a901461023d5780638d5c96801461027257610116565b806305ad45a41461011b5780630c11d8b31461013957806322d9a6a71461015757806343242daa1461018c575b600080fd5b6101236103c1565b6040516101309190611bc6565b60405180910390f35b6101416103ce565b60405161014e9190611cd1565b60405180910390f35b610171600480360381019061016c9190611d33565b61045c565b60405161018396959493929190611e1a565b60405180910390f35b6101a660048036038101906101a19190611eb5565b610750565b6040516101b39190611ee2565b60405180910390f35b6101d660048036038101906101d19190612032565b61078f565b005b6101f260048036038101906101ed9190611eb5565b610ac9565b6040516101ff9190611ee2565b60405180910390f35b610222600480360381019061021d9190611d33565b610b08565b604051610234969594939291906120bd565b60405180910390f35b61025760048036038101906102529190611d33565b610df0565b604051610269969594939291906120bd565b60405180910390f35b61028c60048036038101906102879190611d33565b610f5c565b005b610296611285565b6040516102a39190611ee2565b60405180910390f35b6102c660048036038101906102c19190611d33565b6112ab565b6040516102d896959493929190611e1a565b60405180910390f35b6102e9611424565b6040516102f69190611bc6565b60405180910390f35b610307611430565b6040516103149190611bc6565b60405180910390f35b6103376004803603810190610332919061212c565b61143c565b005b610353600480360381019061034e9190611d33565b61175d565b60405161036091906122c3565b60405180910390f35b610383600480360381019061037e9190611eb5565b61195f565b005b61038d611a54565b60405161039a9190611bc6565b60405180910390f35b6103ab611a61565b6040516103b89190611cd1565b60405180910390f35b6000600380549050905090565b6060600480548060200260200160405190810160405280929190818152602001828054801561045257602002820191906000526020600020905b8160009054906101000a900473ffffffffffffffffffffffffffffffffffffffff1673ffffffffffffffffffffffffffffffffffffffff1681526020019060010190808311610408575b5050505050905090565b60006060806000806000600560008873ffffffffffffffffffffffffffffffffffffffff1673ffffffffffffffffffffffffffffffffffffffff16815260200190815260200160002060000154600560008973ffffffffffffffffffffffffffffffffffffffff1673ffffffffffffffffffffffffffffffffffffffff168152602001908152602001600020600101600560008a73ffffffffffffffffffffffffffffffffffffffff1673ffffffffffffffffffffffffffffffffffffffff168152602001908152602001600020600201600560008b73ffffffffffffffffffffffffffffffffffffffff1673ffffffffffffffffffffffffffffffffffffffff16815260200190815260200160002060030160009054906101000a900473ffffffffffffffffffffffffffffffffffffffff16600560008c73ffffffffffffffffffffffffffffffffffffffff1673ffffffffffffffffffffffffffffffffffffffff16815260200190815260200160002060030160149054906101000a900460ff16600560008d73ffffffffffffffffffffffffffffffffffffffff1673ffffffffffffffffffffffffffffffffffffffff1681526020019081526020016000206004015484805461062f90612314565b80601f016020809104026020016040519081016040528092919081815260200182805461065b90612314565b80156106a85780601f1061067d576101008083540402835291602001916106a8565b820191906000526020600020905b81548152906001019060200180831161068b57829003601f168201915b505050505094508380546106bb90612314565b80601f01602080910402602001604051908101604052809291908181526020018280546106e790612314565b80156107345780601f1061070957610100808354040283529160200191610734565b820191906000526020600020905b81548152906001019060200180831161071757829003601f168201915b5050505050935095509550955095509550955091939550919395565b6003818154811061076057600080fd5b906000526020600020016000915054906101000a900473ffffffffffffffffffffffffffffffffffffffff1681565b3373ffffffffffffffffffffffffffffffffffffffff16600260009054906101000a900473ffffffffffffffffffffffffffffffffffffffff1673ffffffffffffffffffffffffffffffffffffffff161461081f576040517f08c379a000000000000000000000000000000000000000000000000000000000815260040161081690612391565b60405180910390fd5b60006002811115610833576108326123b1565b5b600760009054906101000a900460ff166002811115610855576108546123b1565b5b14610895576040517f08c379a000000000000000000000000000000000000000000000000000000000815260040161088c90612452565b60405180910390fd5b61089d611b13565b6108a76000611aef565b6108b16000611b05565b81600001818152505083816020018190525082816040018190525081816060019073ffffffffffffffffffffffffffffffffffffffff16908173ffffffffffffffffffffffffffffffffffffffff1681525050600181608001901515908115158152505060038160a001818152505080600560008473ffffffffffffffffffffffffffffffffffffffff1673ffffffffffffffffffffffffffffffffffffffff16815260200190815260200160002060008201518160000155602082015181600101908161097f919061261e565b506040820151816002019081610995919061261e565b5060608201518160030160006101000a81548173ffffffffffffffffffffffffffffffffffffffff021916908373ffffffffffffffffffffffffffffffffffffffff16021790555060808201518160030160146101000a81548160ff02191690831515021790555060a082015181600401559050506003829080600181540180825580915050600190039060005260206000200160009091909190916101000a81548173ffffffffffffffffffffffffffffffffffffffff021916908373ffffffffffffffffffffffffffffffffffffffff1602179055507fca29f9e3b7304008e8d9319799439d2ddd60419c898a33e719a4b0d970b6dcfb816000015182602001518360400151846060015160018660a00151604051610abb96959493929190611e1a565b60405180910390a150505050565b60048181548110610ad957600080fd5b906000526020600020016000915054906101000a900473ffffffffffffffffffffffffffffffffffffffff1681565b6000606060006060600080600660008873ffffffffffffffffffffffffffffffffffffffff1673ffffffffffffffffffffffffffffffffffffffff16815260200190815260200160002060000154600660008973ffffffffffffffffffffffffffffffffffffffff1673ffffffffffffffffffffffffffffffffffffffff168152602001908152602001600020600101600660008a73ffffffffffffffffffffffffffffffffffffffff1673ffffffffffffffffffffffffffffffffffffffff16815260200190815260200160002060020154600660008b73ffffffffffffffffffffffffffffffffffffffff1673ffffffffffffffffffffffffffffffffffffffff168152602001908152602001600020600301600660008c73ffffffffffffffffffffffffffffffffffffffff1673ffffffffffffffffffffffffffffffffffffffff16815260200190815260200160002060040160009054906101000a900473ffffffffffffffffffffffffffffffffffffffff16600660008d73ffffffffffffffffffffffffffffffffffffffff1673ffffffffffffffffffffffffffffffffffffffff16815260200190815260200160002060050154848054610ccf90612314565b80601f0160208091040260200160405190810160405280929190818152602001828054610cfb90612314565b8015610d485780601f10610d1d57610100808354040283529160200191610d48565b820191906000526020600020905b815481529060010190602001808311610d2b57829003601f168201915b50505050509450828054610d5b90612314565b80601f0160208091040260200160405190810160405280929190818152602001828054610d8790612314565b8015610dd45780601f10610da957610100808354040283529160200191610dd4565b820191906000526020600020905b815481529060010190602001808311610db757829003601f168201915b5050505050925095509550955095509550955091939550919395565b6006602052806000526040600020600091509050806000015490806001018054610e1990612314565b80601f0160208091040260200160405190810160405280929190818152602001828054610e4590612314565b8015610e925780601f10610e6757610100808354040283529160200191610e92565b820191906000526020600020905b815481529060010190602001808311610e7557829003601f168201915b505050505090806002015490806003018054610ead90612314565b80601f0160208091040260200160405190810160405280929190818152602001828054610ed990612314565b8015610f265780601f10610efb57610100808354040283529160200191610f26565b820191906000526020600020905b815481529060010190602001808311610f0957829003601f168201915b5050505050908060040160009054906101000a900473ffffffffffffffffffffffffffffffffffffffff16908060050154905086565b60016002811115610f7057610f6f6123b1565b5b600760009054906101000a900460ff166002811115610f9257610f916123b1565b5b14610fd2576040517f08c379a0000000000000000000000000000000000000000000000000000000008152600401610fc99061273c565b60405180910390fd5b60011515600560003373ffffffffffffffffffffffffffffffffffffffff1673ffffffffffffffffffffffffffffffffffffffff16815260200190815260200160002060030160149054906101000a900460ff16151514611068576040517f08c379a000000000000000000000000000000000000000000000000000000000815260040161105f906127a8565b60405180910390fd5b6000600560003373ffffffffffffffffffffffffffffffffffffffff1673ffffffffffffffffffffffffffffffffffffffff16815260200190815260200160002060040154036110ed576040517f08c379a00000000000000000000000000000000000000000000000000000000081526004016110e49061283a565b60405180910390fd5b6001600660008373ffffffffffffffffffffffffffffffffffffffff1673ffffffffffffffffffffffffffffffffffffffff16815260200190815260200160002060050160008282546111409190612889565b925050819055506001600560003373ffffffffffffffffffffffffffffffffffffffff1673ffffffffffffffffffffffffffffffffffffffff1681526020019081526020016000206004015461119691906128bd565b600560003373ffffffffffffffffffffffffffffffffffffffff1673ffffffffffffffffffffffffffffffffffffffff168152602001908152602001600020600401819055506000600560003373ffffffffffffffffffffffffffffffffffffffff1673ffffffffffffffffffffffffffffffffffffffff1681526020019081526020016000206004015403611282576000600560003373ffffffffffffffffffffffffffffffffffffffff1673ffffffffffffffffffffffffffffffffffffffff16815260200190815260200160002060030160146101000a81548160ff0219169083151502179055505b50565b600260009054906101000a900473ffffffffffffffffffffffffffffffffffffffff1681565b60056020528060005260406000206000915090508060000154908060010180546112d490612314565b80601f016020809104026020016040519081016040528092919081815260200182805461130090612314565b801561134d5780601f106113225761010080835404028352916020019161134d565b820191906000526020600020905b81548152906001019060200180831161133057829003601f168201915b50505050509080600201805461136290612314565b80601f016020809104026020016040519081016040528092919081815260200182805461138e90612314565b80156113db5780601f106113b0576101008083540402835291602001916113db565b820191906000526020600020905b8154815290600101906020018083116113be57829003601f168201915b5050505050908060030160009054906101000a900473ffffffffffffffffffffffffffffffffffffffff16908060030160149054906101000a900460ff16908060040154905086565b60018060000154905081565b60008060000154905081565b3373ffffffffffffffffffffffffffffffffffffffff16600260009054906101000a900473ffffffffffffffffffffffffffffffffffffffff1673ffffffffffffffffffffffffffffffffffffffff16146114cc576040517f08c379a00000000000000000000000000000000000000000000000000000000081526004016114c390612391565b60405180910390fd5b600060028111156114e0576114df6123b1565b5b600760009054906101000a900460ff166002811115611502576115016123b1565b5b14611542576040517f08c379a000000000000000000000000000000000000000000000000000000000815260040161153990612452565b60405180910390fd5b61154a611b61565b6115546001611aef565b61155e6001611b05565b8160000181815250508481602001819052508381604001818152505082816060018190525081816080019073ffffffffffffffffffffffffffffffffffffffff16908173ffffffffffffffffffffffffffffffffffffffff168152505060008160a001818152505080600660008473ffffffffffffffffffffffffffffffffffffffff1673ffffffffffffffffffffffffffffffffffffffff168152602001908152602001600020600082015181600001556020820151816001019081611625919061261e565b50604082015181600201556060820151816003019081611645919061261e565b5060808201518160040160006101000a81548173ffffffffffffffffffffffffffffffffffffffff021916908373ffffffffffffffffffffffffffffffffffffffff16021790555060a082015181600501559050507fcaf6c6701a8ff8141e0a184145144fc3cf084145f5193e2d94a12cb8a4e9d801816000015182602001518360400151846060015185608001518660a001516040516116eb969594939291906120bd565b60405180910390a16004829080600181540180825580915050600190039060005260206000200160009091909190916101000a81548173ffffffffffffffffffffffffffffffffffffffff021916908373ffffffffffffffffffffffffffffffffffffffff1602179055505050505050565b611765611b13565b600560008373ffffffffffffffffffffffffffffffffffffffff1673ffffffffffffffffffffffffffffffffffffffff1681526020019081526020016000206040518060c0016040529081600082015481526020016001820180546117c990612314565b80601f01602080910402602001604051908101604052809291908181526020018280546117f590612314565b80156118425780601f1061181757610100808354040283529160200191611842565b820191906000526020600020905b81548152906001019060200180831161182557829003601f168201915b5050505050815260200160028201805461185b90612314565b80601f016020809104026020016040519081016040528092919081815260200182805461188790612314565b80156118d45780601f106118a9576101008083540402835291602001916118d4565b820191906000526020600020905b8154815290600101906020018083116118b757829003601f168201915b505050505081526020016003820160009054906101000a900473ffffffffffffffffffffffffffffffffffffffff1673ffffffffffffffffffffffffffffffffffffffff1673ffffffffffffffffffffffffffffffffffffffff1681526020016003820160149054906101000a900460ff161515151581526020016004820154815250509050919050565b60028111158015611971575060008110155b6119b0576040517f08c379a00000000000000000000000000000000000000000000000000000000081526004016119a79061293d565b60405180910390fd5b600081036119e4576000600760006101000a81548160ff021916908360028111156119de576119dd6123b1565b5b02179055505b60018103611a1c576001600760006101000a81548160ff02191690836002811115611a1257611a116123b1565b5b0217905550611a51565b60028103611a50576002600760006101000a81548160ff02191690836002811115611a4a57611a496123b1565b5b02179055505b5b50565b6000600480549050905090565b60606003805480602002602001604051908101604052809291908181526020018280548015611ae557602002820191906000526020600020905b8160009054906101000a900473ffffffffffffffffffffffffffffffffffffffff1673ffffffffffffffffffffffffffffffffffffffff1681526020019060010190808311611a9b575b5050505050905090565b6001816000016000828254019250508190555050565b600081600001549050919050565b6040518060c00160405280600081526020016060815260200160608152602001600073ffffffffffffffffffffffffffffffffffffffff168152602001600015158152602001600081525090565b6040518060c0016040528060008152602001606081526020016000815260200160608152602001600073ffffffffffffffffffffffffffffffffffffffff168152602001600081525090565b6000819050919050565b611bc081611bad565b82525050565b6000602082019050611bdb6000830184611bb7565b92915050565b600081519050919050565b600082825260208201905092915050565b6000819050602082019050919050565b600073ffffffffffffffffffffffffffffffffffffffff82169050919050565b6000611c3882611c0d565b9050919050565b611c4881611c2d565b82525050565b6000611c5a8383611c3f565b60208301905092915050565b6000602082019050919050565b6000611c7e82611be1565b611c888185611bec565b9350611c9383611bfd565b8060005b83811015611cc4578151611cab8882611c4e565b9750611cb683611c66565b925050600181019050611c97565b5085935050505092915050565b60006020820190508181036000830152611ceb8184611c73565b905092915050565b6000604051905090565b600080fd5b600080fd5b611d1081611c2d565b8114611d1b57600080fd5b50565b600081359050611d2d81611d07565b92915050565b600060208284031215611d4957611d48611cfd565b5b6000611d5784828501611d1e565b91505092915050565b600081519050919050565b600082825260208201905092915050565b60005b83811015611d9a578082015181840152602081019050611d7f565b60008484015250505050565b6000601f19601f8301169050919050565b6000611dc282611d60565b611dcc8185611d6b565b9350611ddc818560208601611d7c565b611de581611da6565b840191505092915050565b611df981611c2d565b82525050565b60008115159050919050565b611e1481611dff565b82525050565b600060c082019050611e2f6000830189611bb7565b8181036020830152611e418188611db7565b90508181036040830152611e558187611db7565b9050611e646060830186611df0565b611e716080830185611e0b565b611e7e60a0830184611bb7565b979650505050505050565b611e9281611bad565b8114611e9d57600080fd5b50565b600081359050611eaf81611e89565b92915050565b600060208284031215611ecb57611eca611cfd565b5b6000611ed984828501611ea0565b91505092915050565b6000602082019050611ef76000830184611df0565b92915050565b600080fd5b600080fd5b7f4e487b7100000000000000000000000000000000000000000000000000000000600052604160045260246000fd5b611f3f82611da6565b810181811067ffffffffffffffff82111715611f5e57611f5d611f07565b5b80604052505050565b6000611f71611cf3565b9050611f7d8282611f36565b919050565b600067ffffffffffffffff821115611f9d57611f9c611f07565b5b611fa682611da6565b9050602081019050919050565b82818337600083830152505050565b6000611fd5611fd084611f82565b611f67565b905082815260208101848484011115611ff157611ff0611f02565b5b611ffc848285611fb3565b509392505050565b600082601f83011261201957612018611efd565b5b8135612029848260208601611fc2565b91505092915050565b60008060006060848603121561204b5761204a611cfd565b5b600084013567ffffffffffffffff81111561206957612068611d02565b5b61207586828701612004565b935050602084013567ffffffffffffffff81111561209657612095611d02565b5b6120a286828701612004565b92505060406120b386828701611d1e565b9150509250925092565b600060c0820190506120d26000830189611bb7565b81810360208301526120e48188611db7565b90506120f36040830187611bb7565b81810360608301526121058186611db7565b90506121146080830185611df0565b61212160a0830184611bb7565b979650505050505050565b6000806000806080858703121561214657612145611cfd565b5b600085013567ffffffffffffffff81111561216457612163611d02565b5b61217087828801612004565b945050602061218187828801611ea0565b935050604085013567ffffffffffffffff8111156121a2576121a1611d02565b5b6121ae87828801612004565b92505060606121bf87828801611d1e565b91505092959194509250565b6121d481611bad565b82525050565b600082825260208201905092915050565b60006121f682611d60565b61220081856121da565b9350612210818560208601611d7c565b61221981611da6565b840191505092915050565b61222d81611dff565b82525050565b600060c08301600083015161224b60008601826121cb565b506020830151848203602086015261226382826121eb565b9150506040830151848203604086015261227d82826121eb565b91505060608301516122926060860182611c3f565b5060808301516122a56080860182612224565b5060a08301516122b860a08601826121cb565b508091505092915050565b600060208201905081810360008301526122dd8184612233565b905092915050565b7f4e487b7100000000000000000000000000000000000000000000000000000000600052602260045260246000fd5b6000600282049050600182168061232c57607f821691505b60208210810361233f5761233e6122e5565b5b50919050565b7f596f7520617265206e6f74204f776e6572000000000000000000000000000000600082015250565b600061237b601183611d6b565b915061238682612345565b602082019050919050565b600060208201905081810360008301526123aa8161236e565b9050919050565b7f4e487b7100000000000000000000000000000000000000000000000000000000600052602160045260246000fd5b7f57652061726520696e2074686520726567697374726174696f6e20706861736560008201527f2121000000000000000000000000000000000000000000000000000000000000602082015250565b600061243c602283611d6b565b9150612447826123e0565b604082019050919050565b6000602082019050818103600083015261246b8161242f565b9050919050565b60008190508160005260206000209050919050565b60006020601f8301049050919050565b600082821b905092915050565b6000600883026124d47fffffffffffffffffffffffffffffffffffffffffffffffffffffffffffffffff82612497565b6124de8683612497565b95508019841693508086168417925050509392505050565b6000819050919050565b600061251b61251661251184611bad565b6124f6565b611bad565b9050919050565b6000819050919050565b61253583612500565b61254961254182612522565b8484546124a4565b825550505050565b600090565b61255e612551565b61256981848461252c565b505050565b5b8181101561258d57612582600082612556565b60018101905061256f565b5050565b601f8211156125d2576125a381612472565b6125ac84612487565b810160208510156125bb578190505b6125cf6125c785612487565b83018261256e565b50505b505050565b600082821c905092915050565b60006125f5600019846008026125d7565b1980831691505092915050565b600061260e83836125e4565b9150826002028217905092915050565b61262782611d60565b67ffffffffffffffff8111156126405761263f611f07565b5b61264a8254612314565b612655828285612591565b600060209050601f8311600181146126885760008415612676578287015190505b6126808582612602565b8655506126e8565b601f19841661269686612472565b60005b828110156126be57848901518255600182019150602085019450602081019050612699565b868310156126db57848901516126d7601f8916826125e4565b8355505b6001600288020188555050505b505050505050565b7f57652061726520696e2074686520766f74696e67207068617365212100000000600082015250565b6000612726601c83611d6b565b9150612731826126f0565b602082019050919050565b6000602082019050818103600083015261275581612719565b9050919050565b7f596f7520617265206e6f7420616c6c6f77656420746f20766f74650000000000600082015250565b6000612792601b83611d6b565b915061279d8261275c565b602082019050919050565b600060208201905081810360008301526127c181612785565b9050919050565b7f596f75206861766520766f74656420332074696d657320616e6420796f75206360008201527f616e6e6f7420766f7465206d6f7265207468616e207468697300000000000000602082015250565b6000612824603983611d6b565b915061282f826127c8565b604082019050919050565b6000602082019050818103600083015261285381612817565b9050919050565b7f4e487b7100000000000000000000000000000000000000000000000000000000600052601160045260246000fd5b600061289482611bad565b915061289f83611bad565b92508282019050808211156128b7576128b661285a565b5b92915050565b60006128c882611bad565b91506128d383611bad565b92508282039050818111156128eb576128ea61285a565b5b92915050565b7f596f757220696e70757420697320696e636f72656e7400000000000000000000600082015250565b6000612927601683611d6b565b9150612932826128f1565b602082019050919050565b600060208201905081810360008301526129568161291a565b905091905056fea2646970667358221220855af6f7ef83572413922723899ac3b92d3964c30906b57b7283f60f5b3277e364736f6c63430008120033",
  "immutableReferences": {},
  "source": "// SPDX-License-Identifier: MIT\r\npragma solidity >=0.8 <0.9.0;\r\n\r\n// Import the Counters library\r\nimport \"./Counters.sol\";\r\n\r\n// Define the Vote contract\r\ncontract Vote {\r\n    // Use the Counters library for voter and candidate IDs\r\n    using Counters for Counters.Counter;\r\n    Counters.Counter public _voterId;\r\n    Counters.Counter public _candidateId;\r\n\r\n    // Define contract variables\r\n    address public owner; // Address of contract owner\r\n    address[] public votersAddress; // Array of registered voter addresses\r\n    address[] public candidatesAddress; // Array of candidate addresses\r\n\r\n    // Define mappings for voters and candidates\r\n    mapping(address => Voter) public voters;\r\n    mapping(address => Candidate) public candidates;\r\n\r\n    // Define the constructor function\r\n    constructor() {\r\n        owner = msg.sender; // Set the contract owner to the address that deploys the contract\r\n    }\r\n\r\n    // Define the state of the vote using an enum\r\n    enum stateOfVote {\r\n        JUSTALLOWTOREGISTER, // 0\r\n        JUSTALLOWTOVOTE, // 1\r\n        JUSTRESULT // 2\r\n    }\r\n\r\n    stateOfVote stateOfVoted; // Variable to store the current state of the vote\r\n\r\n    // Define the onlyOwner modifier to restrict access to the contract owner\r\n    modifier onlyOwner() {\r\n        require(owner == msg.sender, \"You are not Owner\");\r\n        _;\r\n    }\r\n\r\n    // Define the onlyJUSTALLOWTOREGISTER modifier to restrict access during the registration phase\r\n    modifier onlyJUSTALLOWTOREGISTER() {\r\n        require(\r\n            stateOfVoted == stateOfVote.JUSTALLOWTOREGISTER,\r\n            \"We are in the registration phase!!\"\r\n        );\r\n        _;\r\n    }\r\n\r\n    // Define the onlyJUSTALLOWTOVOTE modifier to restrict access during the voting phase\r\n    modifier onlyJUSTALLOWTOVOTE() {\r\n        require(\r\n            stateOfVoted == stateOfVote.JUSTALLOWTOVOTE,\r\n            \"We are in the voting phase!!\"\r\n        );\r\n        _;\r\n    }\r\n\r\n    // Define the onlyJUSTRESULT modifier to restrict access during the results phase\r\n    modifier onlyJUSTRESULT() {\r\n        require(\r\n            stateOfVoted == stateOfVote.JUSTRESULT,\r\n            \"We are in the process of announcing the voting results!!!\"\r\n        );\r\n        _;\r\n    }\r\n\r\n    function votingMode(uint256 _index) public {\r\n        require(_index <= 2 && _index >= 0, \"Your input is incorent\");\r\n        if (_index == 0) {\r\n            stateOfVoted = stateOfVote.JUSTALLOWTOREGISTER;\r\n        }\r\n        if (_index == 1) {\r\n            stateOfVoted = stateOfVote.JUSTALLOWTOVOTE;\r\n        } else if (_index == 2) {\r\n            stateOfVoted = stateOfVote.JUSTRESULT;\r\n        }\r\n    }\r\n\r\n    // Define the Voter struct\r\n    struct Voter {\r\n        uint256 voterId; // Unique ID for the voter\r\n        string name; // Name of the voter\r\n        string image; // Image of the voter\r\n        address _address; // Ethereum address of the voter\r\n        bool allowed; // Whether the voter is allowed to vote\r\n        uint256 numVote; // Number of votes the voter is allowed to cast\r\n    }\r\n\r\n    // Define the VoterCreated event, which is emitted when a new voter is registered\r\n    event VoterCreated(\r\n        uint256 voterId,\r\n        string name,\r\n        string image,\r\n        address _address,\r\n        bool allowed,\r\n        uint256 numVote\r\n    );\r\n\r\n    // Define the setVoter function, which is used to register a new voter\r\n    function setVoter(\r\n        string memory _name,\r\n        string memory _image,\r\n        address _add\r\n    ) public onlyOwner onlyJUSTALLOWTOREGISTER {\r\n        Voter memory voter; // Create a new Voter struct\r\n        _voterId.increment(); // Increment the voter ID counter\r\n        voter.voterId = _voterId.current(); // Set the voter ID\r\n        voter.name = _name; // Set the voter name\r\n        voter.image = _image; // Set the voter image\r\n        voter._address = _add; // Set the voter Ethereum address\r\n        voter.allowed = true; // Allow the voter to cast votes\r\n        voter.numVote = 3; // Set the number of votes the voter is allowed to cast\r\n\r\n        voters[_add] = voter; // Add the voter to the voters mapping\r\n        votersAddress.push(_add); // Add the voter's Ethereum address to the votersAddress array\r\n\r\n        emit VoterCreated(\r\n            voter.voterId,\r\n            voter.name,\r\n            voter.image,\r\n            voter._address,\r\n            true,\r\n            voter.numVote\r\n        ); // Emit the VoterCreated event\r\n    }\r\n\r\n    // Define the getAllAddressOfVoters function, which returns an array of all registered voter Ethereum addresses\r\n    function getAllAddressOfVoters() public view returns (address[] memory) {\r\n        return votersAddress;\r\n    }\r\n\r\n    // Define the getVoter function, which returns the Voter struct for a given Ethereum address\r\n    function getVoter(address _address) public view returns (Voter memory) {\r\n        return voters[_address];\r\n    }\r\n\r\n    // Define the getVoterByAllElement function, which returns all elements of the Voter struct for a given Ethereum address\r\n    function getVoterByAllElement(\r\n        address _address\r\n    )\r\n        public\r\n        view\r\n        returns (uint256, string memory, string memory, address, bool, uint256)\r\n    {\r\n        return (\r\n            voters[_address].voterId,\r\n            voters[_address].name,\r\n            voters[_address].image,\r\n            voters[_address]._address,\r\n            voters[_address].allowed,\r\n            voters[_address].numVote\r\n        );\r\n    }\r\n\r\n    // Define the getVoterLength function, which returns the number of registered voters\r\n    function getVoterLength() public view returns (uint256) {\r\n        return votersAddress.length;\r\n    }\r\n\r\n    // Define the Candidate struct\r\n    struct Candidate {\r\n        uint256 candidateId; // Unique ID for the candidate\r\n        string name; // Name of the candidate\r\n        uint256 age; // Age of the candidate\r\n        string image; // Image of the candidate\r\n        address _address; // Ethereum address of the candidate\r\n        uint256 voteCount; // Number of votes received by the candidate\r\n    }\r\n\r\n    // Define the CandidateCreated event, which is emitted when a new candidate is registered\r\n    event CandidateCreated(\r\n        uint256 _candidateId,\r\n        string name,\r\n        uint256 age,\r\n        string image,\r\n        address _address,\r\n        uint256 voteCount\r\n    );\r\n\r\n    // Define the setCandidate function, which is used to register a new candidate\r\n    function setCandidate(\r\n        string memory _name,\r\n        uint256 _age,\r\n        string memory _image,\r\n        address _add\r\n    ) public onlyOwner onlyJUSTALLOWTOREGISTER {\r\n        Candidate memory candidate; // Create a new Candidate struct\r\n        _candidateId.increment(); // Increment the candidate ID counter\r\n        candidate.candidateId = _candidateId.current(); // Set the candidate ID\r\n        candidate.name = _name; // Set the candidate name\r\n        candidate.age = _age; // Set the candidate age\r\n        candidate.image = _image; // Set the candidate image\r\n        candidate._address = _add; // Set the candidate Ethereum address\r\n        candidate.voteCount = 0; // Initialize the candidate's vote count to zero\r\n\r\n        candidates[_add] = candidate; // Add the candidate to the candidates mapping\r\n\r\n        emit CandidateCreated(\r\n            candidate.candidateId,\r\n            candidate.name,\r\n            candidate.age,\r\n            candidate.image,\r\n            candidate._address,\r\n            candidate.voteCount\r\n        ); // Emit the CandidateCreated event\r\n\r\n        candidatesAddress.push(_add); // Add the candidate's Ethereum address to the candidatesAddress array\r\n    }\r\n\r\n    // Define the getCandidateLength function, which returns the number of registered candidates\r\n    function getCandidateLength() public view returns (uint256) {\r\n        return candidatesAddress.length;\r\n    }\r\n\r\n    // Define the getAllCandidateAddress function, which returns an array of all registered candidate Ethereum addresses\r\n    function getAllCandidateAddress() public view returns (address[] memory) {\r\n        return candidatesAddress;\r\n    }\r\n\r\n    // array of name and address and number of vote number of every candidate.\r\n\r\n    // Define the getCandidateByAllElement function, which returns all elements of the Candidate struct for a given Ethereum address\r\n    function getCandidateByAllElement(\r\n        address _address\r\n    )\r\n        public\r\n        view\r\n        returns (\r\n            uint256,\r\n            string memory,\r\n            uint256,\r\n            string memory,\r\n            address,\r\n            uint256\r\n        )\r\n    {\r\n        return (\r\n            candidates[_address].candidateId,\r\n            candidates[_address].name,\r\n            candidates[_address].age,\r\n            candidates[_address].image,\r\n            candidates[_address]._address,\r\n            candidates[_address].voteCount\r\n        );\r\n    }\r\n\r\n    // Define the voting function, which allows a voter to cast a vote for a given candidate\r\n    function voting(address _address) public onlyJUSTALLOWTOVOTE {\r\n        require(\r\n            voters[msg.sender].allowed == true,\r\n            \"You are not allowed to vote\"\r\n        ); // Check if the voter is allowed to vote\r\n        require(\r\n            voters[msg.sender].numVote != 0,\r\n            \"You have voted 3 times and you cannot vote more than this\"\r\n        ); // Check if the voter has any remaining votes\r\n\r\n        // candidates[_address].voteCount = candidates[_address].voteCount + 1; // Increment the vote count for the given candidate\r\n        candidates[_address].voteCount += 1; // Increment the vote count for the given candidate\r\n        voters[msg.sender].numVote = voters[msg.sender].numVote - 1; // Decrement the number of remaining votes for the voter\r\n\r\n        if (voters[msg.sender].numVote == 0) {\r\n            voters[msg.sender].allowed = false; // If the voter has no remaining votes, disallow them from voting again\r\n        }\r\n    }\r\n\r\n    //****************************** RESULT FO VOTING ******************** */\r\n}\r\n",
  "sourcePath": "C:\\Users\\Sina\\Desktop\\Solidity_p\\Truffle\\07-Vote\\contracts\\Vote.sol",
  "compiler": {
    "name": "solc",
    "version": "0.8.18+commit.87f61d96.Emscripten.clang"
  },
  "schemaVersion": "3.4.11",
  "updatedAt": "2023-04-24T14:06:49.839Z",
  "networkType": "ethereum",
  "devdoc": {
    "kind": "dev",
    "methods": {},
    "version": 1
  },
  "userdoc": {
    "kind": "user",
    "methods": {},
    "version": 1
  }
}